:020000040000fa
:080000000002040000000000f2
:020000040000fa
:04000800c804000028
:020000040000fa
:04000c0036030000b7
:020000040000fa
:0400100048030000a1
:020000040000fa
:040014003e030000a7
:020000040000fa
:040018005003000091
:020000040000fa
:04001c00c804000014
:020000040000fa
:04002000c804000010
:020000040000fa
:04002400c80400000c
:020000040000fa
:04002800c804000008
:020000040000fa
:04002c00c804000004
:020000040000fa
:04003000c804000000
:020000040000fa
:0400340008030000bd
:020000040000fa
:04003800c8040000f8
:020000040000fa
:04003c00c8040000f4
:020000040000fa
:04004000c8040000f0
:020000040000fa
:04004400c8040000ec
:020000040000fa
:04004800c8040000e8
:020000040000fa
:04004c00c8040000e4
:020000040000fa
:04005000c8040000e0
:020000040000fa
:04005400b0030000f5
:020000040000fa
:040058005803000049
:020000040000fa
:04005c00c8040000d4
:020000040000fa
:04006000c8040000d0
:020000040000fa
:04006400c8040000cc
:020000040000fa
:04006800c8040000c8
:020000040000fa
:04006c00c8040000c4
:020000040000fa
:04007000c8040000c0
:020000040000fa
:04007400c8040000bc
:020000040000fa
:04007800c8040000b8
:020000040000fa
:04007c00c8040000b4
:020000040000fa
:04008000c8040000b0
:020000040000fa
:04008400c8040000ac
:020000040000fa
:04008800c8040000a8
:020000040000fa
:04008c00c8040000a4
:020000040000fa
:04009000c8040000a0
:020000040000fa
:04009400c80400009c
:020000040000fa
:04009800c804000098
:020000040000fa
:04009c00c804000094
:020000040000fa
:0400a0006c040000ec
:020000040000fa
:0400a400160400003e
:020000040000fa
:0400a800c804000088
:020000040000fa
:0400ac00c804000084
:020000040000fa
:0400b000c804000080
:020000040000fa
:0400b400c80400007c
:020000040000fa
:0400b800c804000078
:020000040000fa
:0400bc00c804000074
:020000040000fa
:0400c000c804000070
:020000040000fa
:0400c400c80400006c
:020000040000fa
:0400c800c804000068
:020000040000fa
:0400cc00c804000064
:020000040000fa
:0400d000c804000060
:020000040000fa
:0400d400c80400005c
:020000040000fa
:0400d800c804000058
:020000040000fa
:0400dc00c804000054
:020000040000fa
:0400e000c804000050
:020000040000fa
:0400e400c80400004c
:020000040000fa
:0400e800c804000048
:020000040000fa
:0400ec00c804000044
:020000040000fa
:0400f000c804000040
:020000040000fa
:0400f400c80400003c
:020000040000fa
:0400f800c804000038
:020000040000fa
:0400fc00c804000034
:020000040000fa
:04010000c80400002f
:020000040000fa
:04010400c80400002b
:020000040000fa
:04010800c804000027
:020000040000fa
:04010c00c804000023
:020000040000fa
:04011000c80400001f
:020000040000fa
:04011400c80400001b
:020000040000fa
:04011800c804000017
:020000040000fa
:04011c00c804000013
:020000040000fa
:04012000c80400000f
:020000040000fa
:04012400c80400000b
:020000040000fa
:04012800c804000007
:020000040000fa
:04012c0000040000cb
:020000040000fa
:04013000b204000015
:020000040000fa
:04013400c8040000fb
:020000040000fa
:04013800c8040000f7
:020000040000fa
:04013c00c8040000f3
:020000040000fa
:04014000c8040000ef
:020000040000fa
:04014400c8040000eb
:020000040000fa
:04014800c8040000e7
:020000040000fa
:04014c00c8040000e3
:020000040000fa
:04015000c8040000df
:020000040000fa
:04015400c8040000db
:020000040000fa
:04015800c8040000d7
:020000040000fa
:04015c00c8040000d3
:020000040000fa
:04016000c8040000cf
:020000040000fa
:04016400c8040000cb
:020000040000fa
:04016800c8040000c7
:020000040000fa
:04016c00c8040000c3
:020000040000fa
:04017000c8040000bf
:020000040000fa
:04017400c8040000bb
:020000040000fa
:04017800c8040000b7
:020000040000fa
:04017c00c8040000b3
:020000040000fa
:04018000c8040000af
:020000040000fa
:04018400c8040000ab
:020000040000fa
:04018800c8040000a7
:020000040000fa
:04018c00c8040000a3
:020000040000fa
:04019000c80400009f
:020000040000fa
:04019400c80400009b
:020000040000fa
:04019800c804000097
:020000040000fa
:04019c00c804000093
:020000040000fa
:0401a000c80400008f
:020000040000fa
:0401a400c80400008b
:020000040000fa
:0401a800c804000087
:020000040000fa
:0401ac00c804000083
:020000040000fa
:0401b000c80400007f
:020000040000fa
:0401b400c80400007b
:020000040000fa
:0401b800c804000077
:020000040000fa
:0401bc00c804000073
:020000040000fa
:0401c000c80400006f
:020000040000fa
:0401c400c80400006b
:020000040000fa
:0401c800c804000067
:020000040000fa
:0401cc00c804000063
:020000040000fa
:0401d000c80400005f
:020000040000fa
:0401d400c80400005b
:020000040000fa
:0401d800c804000057
:020000040000fa
:0401dc00c804000053
:020000040000fa
:0401e000c80400004f
:020000040000fa
:0401e400c80400004b
:020000040000fa
:0401e800c804000047
:020000040000fa
:0401ec00c804000043
:020000040000fa
:0401f000c80400003f
:020000040000fa
:0401f400c80400003b
:020000040000fa
:0401f800c804000037
:020000040000fa
:0401fc00c804000033
:020000040000fa
:04020800c804000026
:020000040000fa
:04020c00c804000022
:020000040000fa
:04021000c80400001e
:020000040000fa
:04021400c80400001a
:020000040000fa
:04021800c804000016
:020000040000fa
:04021c00c804000012
:020000040000fa
:04022000c80400000e
:020000040000fa
:04022400c80400000a
:020000040000fa
:04022800c804000006
:020000040000fa
:04022c00c804000002
:020000040000fa
:04023000c8040000fe
:020000040000fa
:04023400c8040000fa
:020000040000fa
:04023800c8040000f6
:020000040000fa
:04023c00c8040000f2
:020000040000fa
:04024000c8040000ee
:020000040000fa
:04024400c8040000ea
:020000040000fa
:04024800c8040000e6
:020000040000fa
:04024c00c8040000e2
:020000040000fa
:04025000c8040000de
:020000040000fa
:04025400c8040000da
:020000040000fa
:04025800c8040000d6
:020000040000fa
:04025c00c8040000d2
:020000040000fa
:04026000c8040000ce
:020000040000fa
:04026400c8040000ca
:020000040000fa
:04026800c8040000c6
:020000040000fa
:04026c00c8040000c2
:020000040000fa
:04027000c8040000be
:020000040000fa
:04027400c8040000ba
:020000040000fa
:04027800c8040000b6
:020000040000fa
:04027c00c8040000b2
:020000040000fa
:04028000c8040000ae
:020000040000fa
:04028400c8040000aa
:020000040000fa
:04028800c8040000a6
:020000040000fa
:04028c00c8040000a2
:020000040000fa
:04029000c80400009e
:020000040000fa
:04029400c80400009a
:020000040000fa
:04029800c804000096
:020000040000fa
:04029c00c804000092
:020000040000fa
:0402a000c80400008e
:020000040000fa
:0402a400c80400008a
:020000040000fa
:0402a800c804000086
:020000040000fa
:0402ac00c804000082
:020000040000fa
:0402b000c80400007e
:020000040000fa
:0402b400c80400007a
:020000040000fa
:0402b800c804000076
:020000040000fa
:0402bc00c804000072
:020000040000fa
:0402c000c80400006e
:020000040000fa
:0402c400c80400006a
:020000040000fa
:0402c800c804000066
:020000040000fa
:0402cc00c804000062
:020000040000fa
:0402d000c80400005e
:020000040000fa
:0402d400c80400005a
:020000040000fa
:0402d800c804000056
:020000040000fa
:0402dc00c804000052
:020000040000fa
:0402e000c80400004e
:020000040000fa
:0402e400c80400004a
:020000040000fa
:0402e800c804000046
:020000040000fa
:0402ec00c804000042
:020000040000fa
:0402f000c80400003e
:020000040000fa
:0402f400c80400003a
:020000040000fa
:0402f800c804000036
:020000040000fa
:0402fc00c804000032
:020000040000fa
:04030000c80400002d
:020000040000fa
:04030400c804000029
:020000040000fa
:04030800c804000025
:020000040000fa
:04030c00c804000021
:020000040000fa
:04031000c80400001d
:020000040000fa
:04031400c804000019
:020000040000fa
:04031800c804000015
:020000040000fa
:04031c00c804000011
:020000040000fa
:04032000c80400000d
:020000040000fa
:04032400c804000009
:020000040000fa
:04032800c804000005
:020000040000fa
:04032c00c804000001
:020000040000fa
:04033000c8040000fd
:020000040000fa
:04033400c8040000f9
:020000040000fa
:04033800c8040000f5
:020000040000fa
:04033c00c8040000f1
:020000040000fa
:04034000c8040000ed
:020000040000fa
:04034400c8040000e9
:020000040000fa
:04034800c8040000e5
:020000040000fa
:04034c00c8040000e1
:020000040000fa
:04035000c8040000dd
:020000040000fa
:04035400c8040000d9
:020000040000fa
:04035800c8040000d5
:020000040000fa
:04035c00c8040000d1
:020000040000fa
:04036000c8040000cd
:020000040000fa
:04036400c8040000c9
:020000040000fa
:04036800c8040000c5
:020000040000fa
:04036c00c8040000c1
:020000040000fa
:04037000c8040000bd
:020000040000fa
:04037400c8040000b9
:020000040000fa
:04037800c8040000b5
:020000040000fa
:04037c00c8040000b1
:020000040000fa
:04038000c8040000ad
:020000040000fa
:04038400c8040000a9
:020000040000fa
:04038800c8040000a5
:020000040000fa
:04038c00c8040000a1
:020000040000fa
:04039000c80400009d
:020000040000fa
:04039400c804000099
:020000040000fa
:04039800c804000095
:020000040000fa
:04039c00c804000091
:020000040000fa
:0403a000c80400008d
:020000040000fa
:0403a400c804000089
:020000040000fa
:0403a800c804000085
:020000040000fa
:0403ac00c804000081
:020000040000fa
:0403b000c80400007d
:020000040000fa
:0403b400c804000079
:020000040000fa
:0403b800c804000075
:020000040000fa
:0403bc00c804000071
:020000040000fa
:0403c000c80400006d
:020000040000fa
:0403c400c804000069
:020000040000fa
:0403c800c804000065
:020000040000fa
:0403cc00c804000061
:020000040000fa
:0403d000c80400005d
:020000040000fa
:0403d400c804000059
:020000040000fa
:0403d800c804000055
:020000040000fa
:0403dc00c804000051
:020000040000fa
:0403e000c80400004d
:020000040000fa
:0403e400c804000049
:020000040000fa
:0403e800c804000045
:020000040000fa
:0403ec00c804000041
:020000040000fa
:0403f000c80400003d
:020000040000fa
:0403f400c804000039
:020000040000fa
:0403f800c804000035
:020000040000fa
:0403fc00c804000031
:020000040000fa
:100400000fb320000e7f22000e01880000000000c4
:10041000000020000000e000020032000001200087
:1004200020028800140007005b0107000000e000c4
:1004300003003a00809021000100200002003700f4
:100440000000200001002000810f70000100320038
:1004500014000700000020000000e000020032004d
:100460000000020000000000d01a0200000000009e
:100470000040da000000fe004440a900401a2000bd
:100480000000e000030032000020200090018800fe
:100490004440a800000006008a1f78008b1f7800e7
:1004a00000000600a1028800800478000000eb0034
:1004b0001f003700e284440054a0b4009905ba003c
:1004c000e284440054a0b4009906ba00e2844400d7
:1004d00054a0b4000006eb00476fde00fd07b20039
:1004e000ae018800636ce10003003a00eaff0700f8
:1004f0000000eb000e003700606ce10008003a00dd
:10050000004deb000a05e800020039003420ec0041
:100510000af0a0008b05e900f9ff3e000400370057
:100520006168e100010032000086eb000b0007006b
:1005300019c7ba001905ba000e04e00003003a001a
:100540000a00e000dbff3a0000000600fe07b200f0
:10055000ae0288008a047800f5ff37000cd0a300b3
:10056000e20f4d001c00390089027800354dba00b9
:100570000a05e800020039003420ec000af0a0006f
:100580008b05e9000f003200254dba000a05e8008e
:10059000020039003420ec000af0a0008b05e900cd
:1005a000080032000c00e0000600320015cdba0051
:1005b0000a05e800020039003420ec000af0a0002f
:1005c0008b05e9008984e80054a0b4000b00e0002a
:1005d000e2ff3a00000006009902ba00055d7800cb
:1005e0008b05e900f7ff3200c82ade00055d7800c0
:1005f0008b05e900f3ff32000c00e000f1ff320050
:1006000019ddba00eeff3700da0404000000000034
:100610003600f800809fbe00829fbe00849fbe000f
:10062000869fbe000000fa00410a0700f0b22000d9
:10063000104078008040e800f0b2200001487800c7
:10064000e0b2200011c0b300014878008460a90026
:100650000080fa004f03be004f02be004f01be00f3
:100660004f00be003600f900004006003600f800da
:100670008020a9000000eb00b10b07003600f80055
:10068000b30b07008040a90010002000ac0b07004e
:100690003600f8008060a90020002000a80b0700a9
:1006a0003600f8008080a90030002000a40b07006d
:1006b000809fbe000000fa00f14a80000020200068
:1006c000008060000000e000020032009580a90078
:1006d000200037008580a90019003700e04a80001b
:1006e00090007800f01f2000008060002028880023
:1006f000e04a80000080e800e04a8800e14a80008b
:10070000009e2000808f500002003a0000962000da
:10071000e04a8800f04a80000080a100f04a88008a
:10072000e14a8000d04a8000808f500004003a00e7
:10073000f04a80000090a000f04a880005003700d1
:100740001128800000202000008060000000e000f0
:10075000e2ff32000080fa004f00be0000400600b9
:10076000809fbe00821f78000000fa001b00370047
:10077000b04a800011288000ee8060004c09dd0046
:10078000312880008280700001087800b04a800023
:100790000080e800b04a8800b14a800000a620002e
:1007a000808f500002003a00009e2000b04a88006e
:1007b000f04a80000010a100f04a8800b14a800091
:1007c000c04a8000808f500004003a00f04a800048
:1007d0000000a000f04a88000400370010288000c4
:1007e000610060000000e000e1ff3a008560a900c0
:1007f0000080fa004f0178004f00be000040060064
:10080000801f78000000fa0010288000620060005d
:100810000000e000010032000225a9008c20a900a0
:100820000080fa004f00780000400600809fbe0064
:100830000000fa00a140800000202000008060003d
:100840000000e0000200320097e0a9001f0037001e
:1008500087e0a90018003700904080001040780021
:100860000080fb00d0288800904080000000e80055
:10087000904088009140800050912000808f50006f
:1008800002003a006081200090408800a040800073
:100890000080a100a040880091408000804080003e
:1008a000808f500004003a00a04080000090a0001b
:1008b000a040880005003700c128800000202000eb
:1008c000008060000000e000e3ff32000080fa00da
:1008d0004f00be0000400600809fbe000000fa00ee
:1008e0001800370060408000e128800081407800d7
:1008f00001487800604080000000e8006040880007
:100900006140800050952000808f500002003a0026
:100910005091200060408800a04080000010a1009d
:10092000a04088006140800070408000808f5000af
:1009300004003a00a04080000000a000a040880011
:1009400004003700c0288000610060000000e00063
:10095000e4ff3a0087c0a9000080fa004f00be0003
:1009600000400600801f78000000fa00c0288000c8
:10097000620060000000e000010032001825a900bc
:100980008c40a9000080fa004f007800004006006b
:100990000040da000000fe00000005008000780042
:1009a000010178003104e000fdff3a000000510031
:1009b00000000600881f7800020478000801780013
:1009c000d6010700080040004f0478000000060030
:1009d0000000fa00881f780000047800ea815700c0
:1009e0003fb9970088007800a04d2000070007005d
:1009f0000000e000020035008040eb000174780048
:100a00004f0478000080fa00000006006200fa003f
:100a1000889fbe008a1f7800000578008104780056
:100a2000020478008300780080f92f000f00400056
:100a3000b80307009a979f00a9979f000000eb005a
:100a4000b09f9f001885fb008a04fb000a05ea009e
:100a50004f55de0050022000808f54000d00320000
:100a6000e10f55000b003a000a0178008800780079
:100a70002f9097009f91970003000100a0979f007f
:100a80000000e0008e0032003f9897000000e80070
:100a9000b09f9f000a04440050022000808f540041
:100aa000040032000900e000e6ff3a003f9897009a
:100ab000840037000000eb00909f9f00809f9f0004
:100ac000f0979f00e0979f00d0979f00c0979f00ee
:100ad0000700370081b220000100500000004000f4
:100ae000c1b1200061007800df989700010070001c
:100af000d09f9f008804780009047800384578006a
:100b00008a00fb0080b220008b0107000000e0009b
:100b1000f0ff3a00a1c2b300814f55000e003a0029
:100b2000cf8897000180e900c08f9f0010007800f7
:100b3000c09f9f000000e00005003d000000ea00ab
:100b4000c09f9f005f9897000020a000d09f9f004b
:100b50000904e8000f003700c09f9f000000eb0071
:100b600005003700f2ff2700820f5000020032001c
:100b70006a01b90002804000090478008804780006
:100b8000b900fb000103b100e98f5000f5ff36000a
:100b9000c09f9f00e0c2b300984f100002003200d7
:100ba0000080eb0019003700a0c2b300d84f10003e
:100bb00007003a00cf8897000180e900c08f9f00ae
:100bc00010007800a09f9f000804e8001000370084
:100bd0000000eb00a09f9f00880078000500370010
:100be000f3ff2700830f5000020032006a02b900b1
:100bf0000400410001047800880078003101fb0006
:100c00000203b100e90f5100f5ff3600a09f9f00dd
:100c1000984478008900fb0040b12000460107009d
:100c20000000e000020032000804e8000100370084
:100c30008044eb00c97f9f0080c6b30080cf540082
:100c400004003a0098cf14000a003a0066405000b1
:100c500006003700c0c6b30080cf540005003a003c
:100c600098cf140003003a0065404000c07f9f0009
:100c70000804e8001801fb00e3fb2f008f8141000e
:100c800081f92f008f804000a0f92f000f00400055
:100c9000100007000000e00009003a00e1fb2f000f
:100ca0008f804000a0f92f000f0040005d02070078
:100cb0000000e000020035000804e80061ff370092
:100cc0000080eb004f0578004f04be000080fa0062
:100cd00000000600889fbe008a9fbe00e4c6b300e5
:100ce000844f5100be00320010003c006b425200a5
:100cf000844f51001800320005003c0054c2b3007c
:100d0000844f5100f600320084c5b3000f00370055
:100d100044c6b300844f51001400320065424200c3
:100d2000844f5100f1003a001000370004c7b300af
:100d3000844f5100dd00320056003500654242000c
:100d4000844f51005300320063424200844f5100ef
:100d5000e6003a004f0037001181e9008208780070
:100d6000f000900012417800de0037002062900011
:100d7000c5c6b300854f520007003a0091027800c3
:100d800064825200840878001402be004fabde007b
:100d9000860378001400370015c7b300854f520052
:100da00003003a001104780068025400050037007f
:100db000a5c6b300854f520006003a0091047800a2
:100dc00068825400840878005403be004402be00c8
:100dd000050037001182e9008408780014027800c9
:100de000cfa2de00612bb9000498be000690be00c1
:100df000a060900088c6b30088cf50000d0032007c
:100e000028c6b30088cf500004003a000402fb005b
:100e1000cfa2de00612bb9000800370048c7b3003d
:100e200088cf5000030032006644440088cf500051
:100e300004003a00cfa2de00612bb9000498be0086
:100e40000690be003002be002003be00f0009000fd
:100e5000e00f5200e08f5a00e00f5b00e08f5b0074
:100e600002003d00d4c2b300080037000012900019
:100e70000418a30002003200b4c2b300030037001c
:100e80000408a3005100320004c2b30084f17800ca
:100e90004c00370020629000c5c6b300854f520059
:100ea00008003a00110578006402550084087800b3
:100eb0001404be006055b8000802be000a03be005c
:100ec0001400370015c7b300854f520003003a00e5
:100ed000910478006882540005003700a5c6b3006d
:100ee000854f520006003a0011057800680255004f
:100ef000840878005403be004402be000500370099
:100f00001182e90084087800140278008002eb0066
:100f10006033b8000498be000690be00a060900048
:100f200088c6b30088cf50000d00320028c6b30039
:100f300088cf500004003a000482fb008002eb00de
:100f40006033b8000800370048c7b30088cf5000ae
:100f5000030032006644440088cf500004003a0089
:100f60008002eb006033b8000498be000690be001b
:100f7000801090000138a300140032003002be003f
:100f80002003be00e00f5200e08f5a00e00f5b002c
:100f9000e08f5b000d00320081c7b300814f51002c
:100fa0000300320081c5b300814f510007003a00b1
:100fb000f000900004c3b30084f178008100e800e1
:100fc00082f178008100e80071009800f000900044
:100fd0008181410063009800824078003e00370024
:100fe000a0619000c4c6b3001181e90084cf510014
:100ff000220032000a003c006442520084cf5100bb
:101000002500320004c2e80084cf510013003200f2
:101010006842520084cf51001e003a000a00370097
:1010200044c7b30084cf51001b0032006642420027
:1010300084cf5100180032006942520084cf510021
:1010400014003a000500370082087800920078000a
:1010500040589000804878002c00370082087800c3
:1010600092007800600a9000cfa2de00612bb900e8
:101070008498be008690be00240037008208780065
:101080009200780060099000cf91de008288be0057
:101090001e0037001181e900820878009200780074
:1010a0006008900080087800180037001181e9007e
:1010b0008208780012027800cfa2de00612bb9000e
:1010c0000498be000690be00f000900081814100af
:1010d0006300980081c7b300230007000b003700ae
:1010e000f000900082f1780006003700f0009000d8
:1010f000818141000204e00001003a0052c2b300c5
:10110000824978008100e800710098000000eb003f
:101110004f05be004f04be000000060080017800ad
:1011200002003700b15978000201e9000200e00036
:10113000fcff3a0000000600020037000304e00054
:10114000060032000001780002007800b04178000b
:1011500081cf5100f9ff3a00010037000001eb0098
:101160000200780000000600fc874700889fbe0050
:101170008a9fbe008c9fbe008e1f780000067800fc
:1011800080c5b30080cf50000a0032007740400095
:1011900080cf50000a0032006940400080cf5000ec
:1011a0000b00320030ae200080bf9f00ae00200058
:1011b0000a00370022ad200082bf9f0006003700e2
:1011c00033ae200083bf9f008e0020000300370055
:1011d00034ae200084bf9f000e0120003c02be0000
:1011e0002c03be000605be000404be0040c6b300ca
:1011f00080cf5000030032006540400080cf500097
:101200000b003a00e00f5200e08f5a00e00f5b0045
:10121000e08f5b0006003d006000b8006011b80080
:10122000040450008584580006055900878559003c
:10123000e80f57000400320040002000f00f570074
:1012400038003a000100370030002000e00f540061
:10125000e08f5c00e00f5d00e08f5d0004003a006d
:10126000dc0890008d0120000100e0000600320043
:101270008e00e900888060008fba9700e5c0780092
:10128000f1ef9f007d012000800078008100e900df
:10129000050033008b05d1000a85d3008984d30073
:1012a0000884d300f9ff3700089ebe000a96be00ee
:1012b000120037008d06e9008e00e900848060008e
:1012c0000fb99700e2c1780082fd2f000f014100a5
:1012d00003f17e00800078008100e9000500330002
:1012e0008783d1000683d3008582d3000482d30094
:1012f000f9ff3700049ebe000696be003c02be0009
:101300002c03be00e00f5200e08f5a00e00f5b009c
:10131000e08f5b008b0034000d00e000e5ff3c0037
:10132000880037002c60900081c6b300814f5000c8
:101330000b00320006003c000004e0000800320010
:10134000e6c05000814f50004e003a0004003700c4
:10135000c1c6b300814f50004a003a002100370057
:101360000800e00004003a005c0890008d012000b5
:101370000000e00006003200110009000e84d800d1
:101380000fb99700e2c07800f1ef9f007d012000c7
:10139000110009000e84d8000a003700110009006e
:1013a0000e04d8008d06e9000e81b9000204540035
:1013b0008fb8970061417c0081fd2f008f80400035
:1013c00082f07e00000478000800e0000200320095
:1013d0000d00e000f1ff3c00cfc4de00614db9001c
:1013e00025003700e00f5400e08f5c0004003a0055
:1013f0005c0890008d0120000000e0000700320032
:101400006171b9000800be00630107008fb9970041
:10141000e3417800f3ef9f007d0120006171b90086
:101420000800be004c0107000b0037006171b900d5
:101430000800be00390107008d06e90000f1b9007f
:10144000020454000fba9700e4427c0084fd2f0090
:101450000f02420005f27e000004be00e00f5000c3
:10146000e08f5800020032000d00e000efff3c006a
:101470004fcdde008a057800089ebe000a96be00a9
:1014800030003700e00f5400e08f5c00e00f5d009b
:10149000e08f5d0004003a005c0890008d012000a0
:1014a0000000e000090032006172b900612bb90050
:1014b0000800be000a01be00da0107000fba97005b
:1014c00064427800f4ef9f007d0120006172b90052
:1014d000612bb9000800be000a01be00ca01070066
:1014e0000d0037006172b900612bb9000800be0021
:1014f0000a01be00cf0107008d06e90000f2b90025
:10150000040454008fba970065427c0085fd2f00cb
:101510008f82420084f27e00009ebe000296be00d2
:101520003c04be002c05be00e00f5400e08f5c00c0
:10153000e00f5d00e08f5d00020034000d00e00070
:10154000e8ff3c00e80f570010003a000c10900034
:101550000038a3000d003200f78f560006003e0051
:1015600085fd2f008f824200e5c07e0000c3b300de
:1015700080cf5000050032008d06e90002c3b300a1
:1015800081fd2f008f80400082f07e007881160060
:10159000120e98006c00900083fd2f008f81410097
:1015a0008d804100ddfe07001c089000dc089000e3
:1015b000810f500006003d0000805000000e980092
:1015c0000c1090000040a100001698000f0037009a
:1015d0000100e0000d003d008c109000f4806000e0
:1015e000f08f500009003a007c099000fc00900048
:1015f000810051000c099000828050000080500052
:101600004240a90001003400000e98004f07780006
:101610004f06be004f05be004f04be00cf01b10013
:10162000000006000400fa00889fbe008a9fbe00ea
:101630008c1f78000004780001067800f80d9000f7
:10164000780090008085550008089000808555003e
:101650001808900080855500280890008085550066
:101660003808900080855500480890008085550016
:101670000002220090bf9f0000032300a0bf9f0034
:10168000081090000028a30015003a000b00e000ad
:10169000130034000b0578008a047800e20f55002f
:1016a0000100360029002000c801900009017800df
:1016b000ee8057005800900003000100500498008d
:1016c0000000e0008c003200680890000900400033
:1016d000600c9800090555004240a900eeff3c004f
:1016e000780190000200e0000c003400c801900076
:1016f0008c0078005800900003000100500498000e
:101700008080eb000000e0007c003200e8089000e0
:101710007800900000804000600c9800880c9000d9
:101720000900e0001100340009057800e28f540040
:10173000010036002a002000c80190000a0178004c
:10174000ec805700580090000300010050049800fe
:101750000000e00068003200680890000a004000c5
:10176000600c98008a845400edff3700180990003f
:101770000200e0000c003400c8019000e800900076
:101780005800900003000100500498008080eb0096
:101790000000e00059003200e808900018089000ae
:1017a00000804000600c9800a80c90000900e00048
:1017b0001100340009057800e28f54000100360062
:1017c0002a002000c80190000a017800ec80570030
:1017d0005800900003000100500498000000e00051
:1017e00045003200680890000a004000600c980034
:1017f0008a845400edff3700380990000200e000b1
:101800000e003400e800900018089000808040002e
:10181000c801900058009000030001005004980097
:101820008080eb000000e00034003200e808900007
:101830003808900000804000600c9800c80c9000b0
:101840000900e0001100340009057800e28f54001f
:10185000010036002a002000c80190000a0178002b
:10186000ec805700580090000300010050049800dd
:101870000000e00020003200680890000a004000ec
:10188000600c98008a845400edff37000810900027
:101890008000eb000028a300180032000b00e000dd
:1018a000160034008b04780009057800e28f54009c
:1018b000010036002a002000c80190000a017800cb
:1018c000ee8057005800900003000100500498007b
:1018d0000000e00008003200680890000a004000a4
:1018e000600c98008a8454004240a900eeff3c003e
:1018f0008000eb00010037008080eb0001007800e1
:101900004f0678004f05be004f04be000080fa006d
:10191000000006000108780000000600839f6800b0
:101920000100e00002003d0060001000e0801800af
:101930000300e00002003d0060011100e081190099
:10194000050007004f00e00002003b0060001000af
:10195000e0801800000006006022b80006022000a7
:101960000000d0008180d2000482d2008582d200a3
:101970000000a0000202520083825a0003003100de
:101980000202420083824a000000a1000603e9002f
:10199000f3ff3a0000000600efff07000400be005e
:1019a00000000600889fbe008a9fbe0030044200ef
:1019b000b0844a0030054b0090854b006000b100b8
:1019c0000898be000a90be000440e10005c8e1008e
:1019d00006d0e10007d8e1000200310068004000b5
:1019e0001008e8004f05be004f04be0000000600ce
:1019f000889fbe008a9fbe003004be002005be0046
:101a00000418540005985c0006185d0007985d00f6
:101a1000110020000440e10005c8e10006d0e1000b
:101a200007d8e100010039008000eb0010881000a9
:101a30004f05be004f04be00000006001200fa0071
:101a4000889fbe008a9fbe008c9fbe00e0b79f00ab
:101a5000f1b79f0082bf9f0093bf9f000605be00a5
:101a60000404be000000eb00d0b79f00c0b79f0089
:101a7000b0b79f00a0b79f0090b79f000006eb0093
:101a80005fb19700cfb09700820141003fb097004f
:101a90000200e00004003d00370007007e80570090
:101aa000c0ff070003003700330007007e805700a7
:101ab000cfff0700dfb697000d00e0000c003500f7
:101ac0006fb29700ffb297000fbb97009fbb9700c4
:101ad00010002000010020006011b8000002720018
:101ae0008182720002037300838373001b0007006e
:101af0000c06e80001042000810f5600e0ff3a00c8
:101b00000d00e00004003d000802be000a03be0014
:101b10007e805700a3ff07005fa897000000e00049
:101b200005003a001fb29700afb297003fb397008d
:101b3000cfb39700090007006fb09700ffb0970080
:101b40000fb997009fb997004f06be004f05be0022
:101b50004f04be000080fa000000060001000700ec
:101b600000000600a4b79f00b5b79f00c6b79f004e
:101b7000d7b79f00000006004f09de008281710088
:101b8000b3b79f004f01de0081804000828070006b
:101b9000a1b79f008fb097004f09de000000400002
:101ba0000200700090b79f007fa897004f01de00f1
:101bb000818040008280700081b79f000d00070087
:101bc0004f3ade000000400004007000f0af9f00bc
:101bd000080007000402420085824a0006034b0009
:101be00087834b00dfff07000802be000a03be0028
:101bf000000006002fb29700bfb297004fb39700c6
:101c0000dfb3970000000600881f7800180020004e
:101c1000881f780089ff07008f87e9004f0478004c
:101c200000000600801feb0084ff07008f87e9009b
:101c300000000600889fbe008a9fbe00e00f500093
:101c4000e08f5800e00f5900e08f59000c003d0074
:101c50006044b8006055b8000000540081805c000a
:101c600002015d0083815d0018002000150007005f
:101c700008003d00180007000004eb0005003700d5
:101c80000004eb000f00070002003d0012000700f7
:101c900018002000dcff07000800e000060032000a
:101ca0006022b8006033b8000000520081805a0002
:101cb00002015b0083815b004f05be004f04be0044
:101cc00000000600e00f5200e08f5a00e00f5b00ba
:101cd000e08f5b00000006006044b8006055b8006b
:101ce0000402540085825c0006035d0087835d006a
:101cf00000000600889fbe008a9fbe008c1f7800ef
:101d0000e00f5000e08f5800e00f5900e08f5900bd
:101d10000d003d006044b8006055b800000054005c
:101d200081805c0002015d0083815d001c00200059
:101d30000820e10009a8e1000ab0e1000bb8e100c9
:101d40000d003d00080037000006eb00e00f5200d8
:101d5000e08f5a00e00f5b00e08f5b0006003d0063
:101d60006044b8006055b8000402540085825c00ed
:101d700006035d0087835d00aaff07000c00e000fa
:101d8000060032006022b8006033b8000000520044
:101d900081805a0002015b0083815b004f0678005e
:0c1da0004f05be004f04be00000006000e
:020000040000fa
:101dac005b77000061690000745d00002061000039
:101dbc0064640000723d0000005b00004d410000b7
:101dcc0054430000485d0000005b00004e450000dd
:101ddc00585400005f42000059540000455d00005b
:101dec002057000061690000746900006e670000f4
:101dfc002e2e00002e0000005b4e00004558000007
:101e0c00545f000042590000544500005d20000062
:101e1c00476f0000742000006279000074650000b8
:101e2c003d0000003c3c0000416400006472000076
:101e3c0065730000733e00003e0000005b4e000026
:101e4c0045580000545f0000425900005445000002
:101e5c005d200000446900007363000061720000a3
:101e6c00646900006e67000020740000686900005f
:101e7c00732000006279000074650000206100008e
:101e8c006e64000020740000726100006e7300002c
:101e9c0069740000696f00006e6900006e670000d5
:101eac00004e000065780000745f0000627900004d
:101ebc00746500005f6c00006f6f00007020000004
:101ecc00746900006d6900006e67000020690000f5
:101edc0073730000756500003f0000002c200000ab
:101eec006e650000772000006c6500006e670000d6
:101efc00746800003d0000005b4f00005645000078
:101f0c00524600004c4f0000575d00002069000055
:101f1c006e700000757400005f6c0000656e000050
:101f2c003d0000002c200000696e00007075000060
:101f3c00745f000062750000663d00000000000048
:101f4c005b4f000056450000524600004c4f00000d
:101f5c00575d0000204400006973000063610000bd
:101f6c0072640000696e0000672000006375000059
:101f7c0072720000656e0000742000007365000032
:101f8c0071750000656e000063650000005b000069
:101f9c00544900004d4500004f550000545d0000b1
:101fac0020630000616c0000637500006c61000030
:101fbc007465000064200000636800006563000025
:101fcc006b730000756d00003d0000002c200000bc
:101fdc0072650000636500006976000065640000ae
:101fec002063000068650000636b000073750000df
:101ffc006d3d0000005b0000534500004e440000a6
:10200c005f410000445d0000205700007269000031
:10201c00746900006e6700002e2e00002e00000078
:10202c005b530000454e0000445f0000414400003b
:10203c005d200000577200006f74000065200000e6
:10204c006279000074650000733d0000005b0000c5
:10205c0042410000445f0000434b00005355000018
:10206c004d5d0000204700006f6900006e670000a6
:10207c0020620000616300006b200000746f0000a0
:10208c002077000061690000740000005b550000bf
:10209c006e6b00006e6f0000776e00002073000006
:1020ac0074610000746500002c2000007265000053
:1020bc007365000074740000696e0000675d0000b9
:1020cc00005b0000542100005d000000782500003a
:1020dc003032000058200000002500006400000091
:0820ec00257500000000000052
:020000040000fa
:1020f4000000fa00e0002400002888000225ef0018
:10210400001a2000402888000a25ef000c25ef0063
:102114000e25ef001025ef001225ef001425ef0027
:102124009560a8005301070000962000e04a88004b
:1021340000962000d04a8800009e2000c04a8800f3
:10214400009e2000b04a8800f04a80000010a000e1
:10215400f04a8800f04a80000090a000f04a88000d
:10216400f04a80000080a100f04a8800f04a800014
:102174000000a100f04a88000080fa000000060078
:102184000200fa00c04a8000100f7800c04a8000a4
:102194000080e800c04a8800c14a800000a62000f0
:1021a400808f500002003a00009e2000c04a880040
:1021b400c14a8000b04a8000808f500003003a007a
:1021c400f04a80000010a000f04a8800f04a800025
:1021d4000000a100f04a88001e0078000080fa0088
:1021e400000006000600fa00881f78001007980017
:1021f400210798000000eb00000f78000b00370067
:10220400f04a8000620060000000e0000c003a0028
:102214001e007800000040009e00900000844000f2
:10222400d7ff0700000c78001e0fe8002e00900076
:102234009e007800808f5000f1ff390001003700c4
:10224400000000001e0078004f0478000080fa00af
:10225400000006000200fa00000f78009580a90033
:10226400d04a80001e087800d04a80000080e80030
:10227400d04a8800d14a8000009e2000808f500000
:1022840002003a0000962000d04a8800f04a8000fc
:102294000090a100f04a8800e14a8000d04a800002
:1022a400808f500003003a00f04a80000080a000b4
:1022b400f04a88009580a8000080fa00000006001b
:1022c4000600fa0010079800210798000000eb00b0
:1022d400000f78000c003700f14a80000010200045
:1022e400008060000000e0000c003a001e0078004e
:1022f400000040009e009000008040001000780024
:102304001e0fe800d3ff07002e0090009e00780007
:10231400808f5000f0ff39000100370000000000fa
:102324001e0078000080fa00000006000200fa0097
:102334000000eb00000f7800f14a8000001020003c
:10234400008060000000e000010032001e30a000a8
:10235400f14a800000202000008060000000e000be
:10236400010032001e40a000f04a800061006000bd
:102374000000e000010032001e00a000f04a8000ce
:10238400620060000000e000020032001e20a00095
:10239400010037001e10a0001e0078000080fa0023
:1023a400000006000200fa00000f7800c14a800015
:1023b4001e007800000040008080400000a620003d
:1023c400808f50000b00390000a6200080007800a8
:1023d400c04a8000008050000080d1001e00100020
:1023e40080004000009e2000008040001000780023
:1023f40005003700c14a80001e007800000040003c
:1024040000804000100078000080fa000000060000
:102414000800fa0020079800310798000000eb003c
:102424001007980010c0b300004f7800be00900061
:10243400f0032000808f500007003e00f04a800027
:10244400620060000000e00003003a002e009000eb
:102454000000e00003003a000040eb00004f780069
:1024640030003700c04a800080007800009e2000c1
:10247400008050000080d100800078003e00900071
:1024840080804000f0032000008060001007980066
:10249400c14a8000b04a8000808f50000b00310098
:1024a400c14a80003e00900000004000808040004f
:1024b400b04a80000080e900808f5000120036008e
:1024c4000040eb00004f78000f003700c14a800045
:1024d400b04a8000808f50000b0036001e00900030
:1024e4000000400080007800009e200080804000b2
:1024f400b04a80000080e900808f5000020036005e
:102504000040eb00004f78001e4078000004e0001b
:10251400040032001e009000a2ff0700ae009000ed
:10252400800878001e4078000080fa000000060051
:102534000000fa00f04a8000610060000000e00042
:1025440012003a00c14a8000b04a8000808f5000d7
:1025540006003600c04a800080007800b04a80003f
:10256400008050000080d10009003700b04a80008c
:1025740080007800c04a8000008050000080d100b4
:102584000104200000805000010037000000eb002f
:102594000080fa00000006000000fa00f14a800002
:1025a40000102000008060000000e00012003a00eb
:1025b400e14a8000d04a8000808f50000600360037
:1025c400e04a800080007800d04a800000805000fb
:1025d4000080d10009003700d04a800080007800d4
:1025e400e04a8000008050000080d10001042000f7
:1025f40000805000010037000000eb000080fa006a
:10260400000006000000fa00f04a80000000d1003b
:10261400614060000080fb0000f0a7000000ea00b9
:102624000000ea004f00de00004078000080fa005d
:10263400000006000000fa00f04a80004800de00b6
:10264400614060000080fb0000f0a7000000ea0089
:102654000000ea004f00de00004078000080fa002d
:10266400000006000000fa00102880000080fa0034
:10267400000006000000fa0001e5a8000345a800d8
:102684000385a8000080fa00000006000000fa009c
:1026940001e5a9000345a9000385a9000080fa000b
:1026a400000006000000fa0080002000b028880026
:1026b4001825ef00001a2000f02888002025ef00dc
:1026c4002225ef002425ef002625ef002825ef0022
:1026d4002a25ef0097c0a800400107006081200070
:1026e4009040880060812000804088005091200044
:1026f400704088005091200060408800a040800015
:102704000010a000a0408800a04080000090a0001d
:10271400a0408800a04080000080a100a040880064
:10272400a04080000000a100a04088000080fa00c2
:10273400000006000200fa000040eb00004f7800a1
:1027440070408000104f7800704080000000e80066
:10275400704088007140800050952000808f5000a8
:1027640002003a00509120007040880071408000bf
:1027740060408000808f500003003a00a040800039
:102784000010a000a0408800a04080000000a1002c
:10279400a04088001e4078000080fa000000060077
:1027a4000600fa00881f7800100798002107980097
:1027b4000000eb00000f780009003700a040800003
:1027c400620060000000e0000a003a001e00900071
:1027d4001e044000d7ff0700004c78001e0fe800dd
:1027e4002e0090009e007800808f5000f3ff390087
:1027f40001003700000000001e0078004f0478003c
:102804000080fa00000006000200fa00004f780081
:1028140097e0a900804080001e4878008040800036
:102824000000e80080408800814080005091200032
:10283400808f500002003a006081200080408800b0
:10284400a04080000090a100a0408800914080003a
:1028540080408000808f500003003a00a040800038
:102864000080a000a040880097e0a8000080fa0043
:10287400000006000600fa001007980021079800df
:102884000000eb00000f78000a003700a140800030
:1028940000102000008060000000e0000a003a0000
:1028a4001e0090001e004000104078001e0fe8003b
:1028b400d5ff07002e0090009e007800808f500006
:1028c400f2ff390001003700000000001e0078000c
:1028d4000080fa00000006000200fa000000eb008d
:1028e400000f7800a14080000010200000806000ec
:1028f4000000e000010032001e30a000a140800072
:1029040000202000008060000000e0000100320090
:102914001e40a000a0408000610060000000e000b4
:10292400010032001e00a000a04080006200600090
:102934000000e000020032001e20a0000100370069
:102944001e10a0001e0078000080fa00000006009f
:102954000200fa00000f7800704080009e004000e2
:1029640050952000808f500008003900704080008e
:102974009e004000509520000000ea0000804000c6
:1029840051912000614078000300370070408000be
:102994001e004000104078000080fa00000006008d
:1029a4000800fa0020079800310798000000eb00a7
:1029b4001007980010c0b300004f7800be009000cc
:1029c400f0032000808f500007003e00a0408000ec
:1029d400620060000000e00003003a002e00900056
:1029e4000000e00003003a000040eb00004f7800d4
:1029f4002c00370070408000800078003e0090007a
:102a040080804000509120000000ea008080400057
:102a1400f0032000008060001007980071408000df
:102a240060408000808f50000a00310071408000b7
:102a34003e00900080804000604080000000e9007b
:102a4400808f5000100036000040eb00004f7800eb
:102a54000d0037007140800060408000808f50007e
:102a6400090036009e0090005091200080804000b4
:102a7400604080000000e900808f500002003600b2
:102a84000040eb00004f78001e4078000004e00096
:102a9400040032001e009000adff0700ae0090005d
:102aa400804878001e4078000080fa00000006008c
:102ab4000000fa00a0408000610060000000e00017
:102ac4000f003a007140800060408000808f500009
:102ad400050036007040800080007800604080006f
:102ae40000805000070037007040800080007800ac
:102af40060408000008050000004b00001003700f6
:102b04000000eb000080fa00000006000000fa005c
:102b1400a140800000102000008060000000e00060
:102b24000f003a009140800080408000808f500068
:102b340005003600904080008000780080408000ce
:102b4400008050000700370090408000800078002b
:102b54008040800000805000f00fb000010037007a
:102b64000000eb000080fa00000006000000fa00fc
:102b7400a04080000000d100614060000080fb00a4
:102b840000f0a7000000ea000000ea004f00de00a9
:102b9400004078000080fa00000006000000fa00ff
:102ba400a04080004800de00614060000080fb001f
:102bb40000f0a7000000ea000000ea004f00de0079
:102bc400004078000080fa00000006000000fa00cf
:102bd400c02880000080fa00000006000000fa000f
:102be40017e5a8001945a8000080fa0000000600b7
:102bf4000000fa0017e5a9001945a9000080fa00b1
:102c0400000006000400fa000000eb00000f78004a
:102c14000040eb002047980020408000e20f500065
:102c24006c003200e20f500005003e000000e0009e
:102c34000d003200e10f50002a003200aa003700d4
:102c4400e40f500095003200e40f50007200390088
:102c5400e50f50009f003200a30037000000000081
:102c6400010037000000000066fe07000004a20017
:102c74000004e000f9ff320041fd0700000f780076
:102c840060ed2800ad0007000e0078001100200060
:102c9400e70007001e007800f30f5000f1ff3a0030
:102ca40030ee2800a50007000e0078001100200077
:102cb400df0007000000eb001f0107002e010700e2
:102cc4001e0078008040780000aa200001487800a7
:102cd40010002000304088001000200020408800b0
:102ce40085003700b0ee2800a600070010c0b3002e
:102cf4000ae8b7003200370042fe07000004a200d1
:102d04000004e0002e003200314080002003200047
:102d1400808f500003003a002000200020408800eb
:102d24002b00370016fd0700000f780020f0280064
:102d3400820007000e0078001100200099000700af
:102d44009e00780000102000008060000000e00079
:102d54000d00320080f128008a00070040f22800ac
:102d6400880007000ac8bf000004a2000004e000b5
:102d74000200320070f528008200070030002000b5
:102d84002040880012003700304080009e00780008
:102d94000141780001aa2000827078003040800050
:102da4000000e8003040880040f728006300070076
:102db40030408000b70007000000eb00de00070091
:102dc4000ac8bf000004e000cbff3a004a00370005
:102dd4004900370020f828005800070030408000e0
:102de400ac00070080f92800540007003040800040
:102df4008000780000aa20006a00070050fa28002a
:102e04006000070060fa28005e0007000628ef0053
:102e14000428ef0038003700df000700304080004e
:102e24000000e9008000780000aa2000ac0107003f
:102e340020479800d0fc2800400007000e80e800de
:102e44001100200057000700c0fe28003b000700c7
:102e5400304080008000e90000aa2000008040008b
:102e64001100200072000700304080000000e900db
:102e740001aa2000e14078002e40900080cf50004d
:102e840003003a0040002000204088001a00370068
:102e9400500020002040880017003700100029004f
:102ea40038000700304080008000780000aa20002d
:102eb40070fe0700600129002000070030408000f8
:102ec4007400070050fa28002e0007000428ef00c1
:102ed40009003700d00229002a0007000628ef0065
:102ee4000428ef0004003700c0042900250007006f
:102ef4000428ef00000000000080fa000000060033
:102f04000000fa0020408000e10f500005003a0064
:102f140030002000204088000a68ef007006290075
:102f2400180007000080fa00000006000000fa0004
:102f3400f3ff07000080fa00000006000400fa0016
:102f4400100798001e00900093f60700000f780009
:102f54001e0090009e00780046fe07000040880096
:102f64001aff070001202000010060000000e000bb
:102f74000200320010c0b30002e8b7000080fa007b
:102f8400000006000200fa00000f78001e0078001e
:102f9400eaff0700a0c0b3001bfe07000080fa0090
:102fa400000006000800fa00200798003107980086
:102fb4003e009000f00f5000010036000001200098
:102fc400100798000000eb00000f78000e00370097
:102fd4002e0090001e004000104078008080fb000e
:102fe4001e0078004201dd0000a620000000410020
:102ff400811f7800c1062900811f780073f607003d
:10300400e48757001e0fe8001e0090009e00780021
:10301400808f5000eeff39001e009000c200dd00da
:1030240000a6200013fe07000080fa00000006003e
:103034000400fa00000f7800110798009e00900029
:103044001e007800d7ff0700a0c0b300eefd070004
:103054000080fa00000006000400fa00100798003f
:103064009e009000811f780030072900801f78009f
:1030740000a6200055f60700e4875700000f7800eb
:103084009e00780000a62000fafd07000080fa00e8
:10309400000006000400fa00100798009e0090004b
:1030a400811f780060072900801f780000a6200097
:1030b40046f60700e4875700000f78009e0078006a
:1030c40000a62000ebfd07000080fa0000000600c7
:1030d4000000fa004c22ef0000f421007012880076
:1030e40000002800801288008460a9009460a80071
:1030f400e0b220008040eb00014878000080fa0034
:10310400000006000200fa00000f78009e0078001c
:1031140071128800e0b220008040eb000148780082
:103124000080fa00000006000000fa00701280001f
:103134000080fa00000006000200fa00000f780088
:103144009e00780061128800e0b220008040eb000d
:10315400014878000080fa00000006000000fa0030
:10316400601280000080fa00000006000000fa00ef
:103174000080fa00000006000000fa00e0b220001f
:103184008040eb00014878009460a80051e2a80058
:103194000080fa00000006000000fa0051e2a900d5
:1031a4009460a9000080fa00000006000200fa0002
:1031b400e0b22000104f78001e4078000004e000c8
:1031c40003003200e0b220008040eb0001487800a8
:1031d4001e4078000080fa00000006000000fa009b
:1031e400f0b22000104078000080fb000080fa005c
:1031f400000006000000fa00f0b220008040eb005e
:0c320400014878000080fa00000006007d
:020000040000fa
:103210002e0b00000200000080000000f40a0000f5
:1032200020000000800000000808000002000000ec
:1032300082000000ffff0000560900000a010000a4
:10324000800000000c0800004a010000800000001f
:10325000600a00004000000080000000000800003c
:103260000400000080000000a00a000032000000fe
:10327000800000000408000004000000800000003e
:103280000a080000020000008200000001000000a7
:10329000140b00001a00000082000000686a6c0035
:1032a000747a4c00000001000002000004000800d5
:1032b00000100000000020002b2d23003000000033
:1032c000d20a0000220000008200000030313200eb
:1032d0003334350036373800394142004344450025
:1032e000460030003132330034353600373839008b
:1032f0006162630064656600000000000000000079
:020000040000fa
:103300000000fa008421ef0000142000700c8800f7
:1033100070012000000c8800f0eb2f00500c88009a
:103320005620ef005820ef005a20ef006e20ef00eb
:103330007020ef007220ef008621ef009021ef0057
:1033400070002000400c8800c0002f00900c880006
:10335000911d800000fc2f00008060000020a00074
:10336000901d8800e11e800000fc2f00008060009e
:103370005000b300e01e8800f11e800000fc2f000a
:10338000008060003000b300f01e8800811d8000c6
:1033900000fc2f00008060007000b300801d8800da
:1033a0000080fa00000006000000fa000000230080
:1033b000100888000621ef006821ef006a21ef0065
:1033c0006c21ef007021ef007221ef007421ef00fb
:1033d0007621ef007a21ef007c21ef007e21ef00c3
:1033e0001200200080072000a109200013102000f7
:1033f00080497800814978008249780012002000d5
:10340000600420007105200003102000804978002e
:10341000814978008249780000000000000880009f
:10342000610060000000e000fcff3a0000000000c6
:103430000108800000022000008060000000e00021
:10344000fbff32000080fa00000006000000fa00d6
:1034500021068000f08f2f00008060000080a00017
:103460002006880091058000f0ff280000806000a1
:1034700000c0a0009005880091058000f08f2f000b
:10348000008060000080a000900588002105800079
:10349000f0ff28000080600000c0a0002005880028
:1034a00021068000f0f82f00008060000040a0009e
:1034b000200688005105800080ff2f0000806000fa
:1034c0000000a0005005880041058000f0ff2800a2
:1034d0000080600000c0a000400588000080fa0065
:1034e000000006000800fa00200798003107980045
:1034f0000040eb00004f78000000eb001007980040
:1035000008003700ae0090001e00900000804000d0
:10351000104078001e4f40001e0090000000e800a0
:10352000100798009e0090003e009000808f500091
:10353000f4ff39001e4078000080fa000000060009
:10354000000f78009e00780041408800ffff3700a0
:103550000000fa0040af200080077800c0b02000d3
:10356000000188000080fa00000006000000fa0058
:1035700063ff0700b5ff07008bff07004afc070049
:10358000d4fe0700dbfa07000080fa000000060006
:103590000000fa0084ff07000080fa000000060027
:1035a0000000fa00f1ff070097fd0700feff37005b
:020000040000fa
:020000040002f8
:04aff000fff300006b
:020000040000fa
:020000040002f8
:04aff400fff6000064
:020000040000fa
:020000040002f8
:04aff8007fb0000026
:020000040000fa
:020000040002f8
:04affc003f3f0000d3
:00000001FF
